{
  "_format": "hh-sol-artifact-1",
  "contractName": "MyEpicNFT",
  "sourceName": "contracts/MyEpicNFT.sol",
  "abi": [
    {
      "inputs": [],
      "stateMutability": "nonpayable",
      "type": "constructor"
    },
    {
      "anonymous": false,
      "inputs": [
        {
          "indexed": true,
          "internalType": "address",
          "name": "owner",
          "type": "address"
        },
        {
          "indexed": true,
          "internalType": "address",
          "name": "approved",
          "type": "address"
        },
        {
          "indexed": true,
          "internalType": "uint256",
          "name": "tokenId",
          "type": "uint256"
        }
      ],
      "name": "Approval",
      "type": "event"
    },
    {
      "anonymous": false,
      "inputs": [
        {
          "indexed": true,
          "internalType": "address",
          "name": "owner",
          "type": "address"
        },
        {
          "indexed": true,
          "internalType": "address",
          "name": "operator",
          "type": "address"
        },
        {
          "indexed": false,
          "internalType": "bool",
          "name": "approved",
          "type": "bool"
        }
      ],
      "name": "ApprovalForAll",
      "type": "event"
    },
    {
      "anonymous": false,
      "inputs": [
        {
          "indexed": false,
          "internalType": "address",
          "name": "sender",
          "type": "address"
        },
        {
          "indexed": false,
          "internalType": "uint256",
          "name": "tokenId",
          "type": "uint256"
        }
      ],
      "name": "NewEpicNFTMinted",
      "type": "event"
    },
    {
      "anonymous": false,
      "inputs": [
        {
          "indexed": true,
          "internalType": "address",
          "name": "from",
          "type": "address"
        },
        {
          "indexed": true,
          "internalType": "address",
          "name": "to",
          "type": "address"
        },
        {
          "indexed": true,
          "internalType": "uint256",
          "name": "tokenId",
          "type": "uint256"
        }
      ],
      "name": "Transfer",
      "type": "event"
    },
    {
      "inputs": [
        {
          "internalType": "address",
          "name": "to",
          "type": "address"
        },
        {
          "internalType": "uint256",
          "name": "tokenId",
          "type": "uint256"
        }
      ],
      "name": "approve",
      "outputs": [],
      "stateMutability": "nonpayable",
      "type": "function"
    },
    {
      "inputs": [
        {
          "internalType": "address",
          "name": "owner",
          "type": "address"
        }
      ],
      "name": "balanceOf",
      "outputs": [
        {
          "internalType": "uint256",
          "name": "",
          "type": "uint256"
        }
      ],
      "stateMutability": "view",
      "type": "function"
    },
    {
      "inputs": [
        {
          "internalType": "uint256",
          "name": "tokenId",
          "type": "uint256"
        }
      ],
      "name": "getApproved",
      "outputs": [
        {
          "internalType": "address",
          "name": "",
          "type": "address"
        }
      ],
      "stateMutability": "view",
      "type": "function"
    },
    {
      "inputs": [],
      "name": "getNFTsMintedSoFar",
      "outputs": [
        {
          "internalType": "uint256",
          "name": "",
          "type": "uint256"
        }
      ],
      "stateMutability": "view",
      "type": "function"
    },
    {
      "inputs": [
        {
          "internalType": "address",
          "name": "owner",
          "type": "address"
        },
        {
          "internalType": "address",
          "name": "operator",
          "type": "address"
        }
      ],
      "name": "isApprovedForAll",
      "outputs": [
        {
          "internalType": "bool",
          "name": "",
          "type": "bool"
        }
      ],
      "stateMutability": "view",
      "type": "function"
    },
    {
      "inputs": [],
      "name": "makeAnEpicNFT",
      "outputs": [],
      "stateMutability": "nonpayable",
      "type": "function"
    },
    {
      "inputs": [],
      "name": "name",
      "outputs": [
        {
          "internalType": "string",
          "name": "",
          "type": "string"
        }
      ],
      "stateMutability": "view",
      "type": "function"
    },
    {
      "inputs": [
        {
          "internalType": "uint256",
          "name": "tokenId",
          "type": "uint256"
        }
      ],
      "name": "ownerOf",
      "outputs": [
        {
          "internalType": "address",
          "name": "",
          "type": "address"
        }
      ],
      "stateMutability": "view",
      "type": "function"
    },
    {
      "inputs": [
        {
          "internalType": "uint256",
          "name": "tokenId",
          "type": "uint256"
        }
      ],
      "name": "pickRandomFirstWord",
      "outputs": [
        {
          "internalType": "string",
          "name": "",
          "type": "string"
        }
      ],
      "stateMutability": "view",
      "type": "function"
    },
    {
      "inputs": [
        {
          "internalType": "uint256",
          "name": "tokenId",
          "type": "uint256"
        }
      ],
      "name": "pickRandomSecondWord",
      "outputs": [
        {
          "internalType": "string",
          "name": "",
          "type": "string"
        }
      ],
      "stateMutability": "view",
      "type": "function"
    },
    {
      "inputs": [
        {
          "internalType": "uint256",
          "name": "tokenId",
          "type": "uint256"
        }
      ],
      "name": "pickRandomThirdWord",
      "outputs": [
        {
          "internalType": "string",
          "name": "",
          "type": "string"
        }
      ],
      "stateMutability": "view",
      "type": "function"
    },
    {
      "inputs": [
        {
          "internalType": "address",
          "name": "from",
          "type": "address"
        },
        {
          "internalType": "address",
          "name": "to",
          "type": "address"
        },
        {
          "internalType": "uint256",
          "name": "tokenId",
          "type": "uint256"
        }
      ],
      "name": "safeTransferFrom",
      "outputs": [],
      "stateMutability": "nonpayable",
      "type": "function"
    },
    {
      "inputs": [
        {
          "internalType": "address",
          "name": "from",
          "type": "address"
        },
        {
          "internalType": "address",
          "name": "to",
          "type": "address"
        },
        {
          "internalType": "uint256",
          "name": "tokenId",
          "type": "uint256"
        },
        {
          "internalType": "bytes",
          "name": "_data",
          "type": "bytes"
        }
      ],
      "name": "safeTransferFrom",
      "outputs": [],
      "stateMutability": "nonpayable",
      "type": "function"
    },
    {
      "inputs": [
        {
          "internalType": "address",
          "name": "operator",
          "type": "address"
        },
        {
          "internalType": "bool",
          "name": "approved",
          "type": "bool"
        }
      ],
      "name": "setApprovalForAll",
      "outputs": [],
      "stateMutability": "nonpayable",
      "type": "function"
    },
    {
      "inputs": [
        {
          "internalType": "bytes4",
          "name": "interfaceId",
          "type": "bytes4"
        }
      ],
      "name": "supportsInterface",
      "outputs": [
        {
          "internalType": "bool",
          "name": "",
          "type": "bool"
        }
      ],
      "stateMutability": "view",
      "type": "function"
    },
    {
      "inputs": [],
      "name": "symbol",
      "outputs": [
        {
          "internalType": "string",
          "name": "",
          "type": "string"
        }
      ],
      "stateMutability": "view",
      "type": "function"
    },
    {
      "inputs": [
        {
          "internalType": "uint256",
          "name": "tokenId",
          "type": "uint256"
        }
      ],
      "name": "tokenURI",
      "outputs": [
        {
          "internalType": "string",
          "name": "",
          "type": "string"
        }
      ],
      "stateMutability": "view",
      "type": "function"
    },
    {
      "inputs": [
        {
          "internalType": "address",
          "name": "from",
          "type": "address"
        },
        {
          "internalType": "address",
          "name": "to",
          "type": "address"
        },
        {
          "internalType": "uint256",
          "name": "tokenId",
          "type": "uint256"
        }
      ],
      "name": "transferFrom",
      "outputs": [],
      "stateMutability": "nonpayable",
      "type": "function"
    }
  ],
  "bytecode": "0x608060405260405180610160016040528061012f81526020016200477c61012f9139600890805190602001906200003892919062000aa7565b506040518061012001604052806040518060400160405280600381526020017f486f74000000000000000000000000000000000000000000000000000000000081525081526020016040518060400160405280600a81526020017f436f6c644368696c6c790000000000000000000000000000000000000000000081525081526020016040518060400160405280600581526020017f446972747900000000000000000000000000000000000000000000000000000081525081526020016040518060400160405280600581526020017f436c65616e00000000000000000000000000000000000000000000000000000081525081526020016040518060400160405280600581526020017f46757a7a7900000000000000000000000000000000000000000000000000000081525081526020016040518060400160405280600381526020017f4d6164000000000000000000000000000000000000000000000000000000000081525081526020016040518060400160405280600481526020017f526f636b0000000000000000000000000000000000000000000000000000000081525081526020016040518060400160405280600381526020017f576574000000000000000000000000000000000000000000000000000000000081525081526020016040518060400160405280600581526020017f536861727000000000000000000000000000000000000000000000000000000081525081525060099060096200026892919062000b38565b50604051806101a001604052806040518060400160405280600581526020017f426c61636b00000000000000000000000000000000000000000000000000000081525081526020016040518060400160405280600481526020017f437574650000000000000000000000000000000000000000000000000000000081525081526020016040518060400160405280600481526020017f526f636b0000000000000000000000000000000000000000000000000000000081525081526020016040518060400160405280600581526020017f4372617a7900000000000000000000000000000000000000000000000000000081525081526020016040518060400160405280600681526020017f5368696e6e79000000000000000000000000000000000000000000000000000081525081526020016040518060400160405280600581526020017f466f67677900000000000000000000000000000000000000000000000000000081525081526020016040518060400160405280600481526020017f466173740000000000000000000000000000000000000000000000000000000081525081526020016040518060400160405280600381526020017f4f6c64000000000000000000000000000000000000000000000000000000000081525081526020016040518060400160405280600681526020017f4d6f6465726e000000000000000000000000000000000000000000000000000081525081526020016040518060400160405280600581526020017f4a7569637900000000000000000000000000000000000000000000000000000081525081526020016040518060400160405280600581526020017f547572626f00000000000000000000000000000000000000000000000000000081525081526020016040518060400160405280600481526020017f5468696e0000000000000000000000000000000000000000000000000000000081525081526020016040518060400160405280600481526020017f4275737900000000000000000000000000000000000000000000000000000000815250815250600a90600d6200058492919062000b9f565b50604051806101c001604052806040518060400160405280600381526020017f436174000000000000000000000000000000000000000000000000000000000081525081526020016040518060400160405280600981526020017f446576656c6f706572000000000000000000000000000000000000000000000081525081526020016040518060400160405280600581526020017f536175636500000000000000000000000000000000000000000000000000000081525081526020016040518060400160405280600481526020017f43616b650000000000000000000000000000000000000000000000000000000081525081526020016040518060400160405280600381526020017f48656e000000000000000000000000000000000000000000000000000000000081525081526020016040518060400160405280600981526020017f537061636553686970000000000000000000000000000000000000000000000081525081526020016040518060400160405280600381526020017f4e4654000000000000000000000000000000000000000000000000000000000081525081526020016040518060400160405280600781526020017f426974636f696e0000000000000000000000000000000000000000000000000081525081526020016040518060400160405280600381526020017f536b79000000000000000000000000000000000000000000000000000000000081525081526020016040518060400160405280600681526020017f426f74746c65000000000000000000000000000000000000000000000000000081525081526020016040518060400160405280600481526020017f466973680000000000000000000000000000000000000000000000000000000081525081526020016040518060400160405280600781526020017f446973636f72640000000000000000000000000000000000000000000000000081525081526020016040518060400160405280600681526020017f436f75727365000000000000000000000000000000000000000000000000000081525081526020016040518060400160405280600481526020017f5765623300000000000000000000000000000000000000000000000000000000815250815250600b90600e620008db92919062000c06565b50348015620008e957600080fd5b506040518060400160405280600981526020017f5371756172654e465400000000000000000000000000000000000000000000008152506040518060400160405280600681526020017f535155415245000000000000000000000000000000000000000000000000000081525081600090805190602001906200096e92919062000aa7565b5080600190805190602001906200098792919062000aa7565b505050620009d56040518060400160405280601e81526020017f74686973206973206d79204e465420636f6e74726163742e20576f6168210000815250620009db60201b620012a61760201c565b62000e27565b62000a7b81604051602401620009f2919062000d3b565b6040516020818303038152906040527f41304fac000000000000000000000000000000000000000000000000000000007bffffffffffffffffffffffffffffffffffffffffffffffffffffffff19166020820180517bffffffffffffffffffffffffffffffffffffffffffffffffffffffff838183161783525050505062000a7e60201b60201c565b50565b60008151905060006a636f6e736f6c652e6c6f679050602083016000808483855afa5050505050565b82805462000ab59062000db1565b90600052602060002090601f01602090048101928262000ad9576000855562000b25565b82601f1062000af457805160ff191683800117855562000b25565b8280016001018555821562000b25579182015b8281111562000b2457825182559160200191906001019062000b07565b5b50905062000b34919062000c6d565b5090565b82805482825590600052602060002090810192821562000b8c579160200282015b8281111562000b8b57825182908051906020019062000b7a92919062000aa7565b509160200191906001019062000b59565b5b50905062000b9b919062000c8c565b5090565b82805482825590600052602060002090810192821562000bf3579160200282015b8281111562000bf257825182908051906020019062000be192919062000aa7565b509160200191906001019062000bc0565b5b50905062000c02919062000c8c565b5090565b82805482825590600052602060002090810192821562000c5a579160200282015b8281111562000c5957825182908051906020019062000c4892919062000aa7565b509160200191906001019062000c27565b5b50905062000c69919062000c8c565b5090565b5b8082111562000c8857600081600090555060010162000c6e565b5090565b5b8082111562000cb0576000818162000ca6919062000cb4565b5060010162000c8d565b5090565b50805462000cc29062000db1565b6000825580601f1062000cd6575062000cf7565b601f01602090049060005260206000209081019062000cf6919062000c6d565b5b50565b600062000d078262000d5f565b62000d13818562000d6a565b935062000d2581856020860162000d7b565b62000d308162000e16565b840191505092915050565b6000602082019050818103600083015262000d57818462000cfa565b905092915050565b600081519050919050565b600082825260208201905092915050565b60005b8381101562000d9b57808201518184015260208101905062000d7e565b8381111562000dab576000848401525b50505050565b6000600282049050600182168062000dca57607f821691505b6020821081141562000de15762000de062000de7565b5b50919050565b7f4e487b7100000000000000000000000000000000000000000000000000000000600052602260045260246000fd5b6000601f19601f8301169050919050565b6139458062000e376000396000f3fe608060405234801561001057600080fd5b50600436106101165760003560e01c806370a08231116100a2578063b88d4fde11610071578063b88d4fde14610305578063c575757a14610321578063c87b56dd14610351578063de9d132f14610381578063e985e9c51461038b57610116565b806370a082311461026b57806395d89b411461029b578063a22cb465146102b9578063b187301f146102d557610116565b80630a1cf4aa116100e95780630a1cf4aa146101b557806323b872dd146101d35780632de38d68146101ef57806342842e0e1461021f5780636352211e1461023b57610116565b806301ffc9a71461011b57806306fdde031461014b578063081812fc14610169578063095ea7b314610199575b600080fd5b61013560048036038101906101309190612539565b6103bb565b604051610142919061319b565b60405180910390f35b61015361049d565b60405161016091906131b6565b60405180910390f35b610183600480360381019061017e919061258b565b61052f565b604051610190919061310b565b60405180910390f35b6101b360048036038101906101ae91906124fd565b6105b4565b005b6101bd6106cc565b6040516101ca9190613436565b60405180910390f35b6101ed60048036038101906101e891906123f7565b6106dd565b005b6102096004803603810190610204919061258b565b61073d565b60405161021691906131b6565b60405180910390f35b610239600480360381019061023491906123f7565b61085b565b005b6102556004803603810190610250919061258b565b61087b565b604051610262919061310b565b60405180910390f35b61028560048036038101906102809190612392565b61092d565b6040516102929190613436565b60405180910390f35b6102a36109e5565b6040516102b091906131b6565b60405180910390f35b6102d360048036038101906102ce91906124c1565b610a77565b005b6102ef60048036038101906102ea919061258b565b610bf8565b6040516102fc91906131b6565b60405180910390f35b61031f600480360381019061031a9190612446565b610d16565b005b61033b6004803603810190610336919061258b565b610d78565b60405161034891906131b6565b60405180910390f35b61036b6004803603810190610366919061258b565b610e96565b60405161037891906131b6565b60405180910390f35b610389610fe8565b005b6103a560048036038101906103a091906123bb565b611212565b6040516103b2919061319b565b60405180910390f35b60007f80ac58cd000000000000000000000000000000000000000000000000000000007bffffffffffffffffffffffffffffffffffffffffffffffffffffffff1916827bffffffffffffffffffffffffffffffffffffffffffffffffffffffff1916148061048657507f5b5e139f000000000000000000000000000000000000000000000000000000007bffffffffffffffffffffffffffffffffffffffffffffffffffffffff1916827bffffffffffffffffffffffffffffffffffffffffffffffffffffffff1916145b8061049657506104958261133f565b5b9050919050565b6060600080546104ac906136d5565b80601f01602080910402602001604051908101604052809291908181526020018280546104d8906136d5565b80156105255780601f106104fa57610100808354040283529160200191610525565b820191906000526020600020905b81548152906001019060200180831161050857829003601f168201915b5050505050905090565b600061053a826113a9565b610579576040517f08c379a000000000000000000000000000000000000000000000000000000000815260040161057090613396565b60405180910390fd5b6004600083815260200190815260200160002060009054906101000a900473ffffffffffffffffffffffffffffffffffffffff169050919050565b60006105bf8261087b565b90508073ffffffffffffffffffffffffffffffffffffffff168373ffffffffffffffffffffffffffffffffffffffff161415610630576040517f08c379a0000000000000000000000000000000000000000000000000000000008152600401610627906133f6565b60405180910390fd5b8073ffffffffffffffffffffffffffffffffffffffff1661064f611415565b73ffffffffffffffffffffffffffffffffffffffff16148061067e575061067d81610678611415565b611212565b5b6106bd576040517f08c379a00000000000000000000000000000000000000000000000000000000081526004016106b4906132b6565b60405180910390fd5b6106c7838361141d565b505050565b60006106d860076114d6565b905090565b6106ee6106e8611415565b826114e4565b61072d576040517f08c379a000000000000000000000000000000000000000000000000000000000815260040161072490613416565b60405180910390fd5b6107388383836115c2565b505050565b6060600061077161074d8461181e565b60405160200161075d91906130c7565b6040516020818303038152906040526119cb565b9050600980549050816107849190613750565b9050600981815481106107c0577f4e487b7100000000000000000000000000000000000000000000000000000000600052603260045260246000fd5b9060005260206000200180546107d5906136d5565b80601f0160208091040260200160405190810160405280929190818152602001828054610801906136d5565b801561084e5780601f106108235761010080835404028352916020019161084e565b820191906000526020600020905b81548152906001019060200180831161083157829003601f168201915b5050505050915050919050565b61087683838360405180602001604052806000815250610d16565b505050565b6000806002600084815260200190815260200160002060009054906101000a900473ffffffffffffffffffffffffffffffffffffffff169050600073ffffffffffffffffffffffffffffffffffffffff168173ffffffffffffffffffffffffffffffffffffffff161415610924576040517f08c379a000000000000000000000000000000000000000000000000000000000815260040161091b906132f6565b60405180910390fd5b80915050919050565b60008073ffffffffffffffffffffffffffffffffffffffff168273ffffffffffffffffffffffffffffffffffffffff16141561099e576040517f08c379a0000000000000000000000000000000000000000000000000000000008152600401610995906132d6565b60405180910390fd5b600360008373ffffffffffffffffffffffffffffffffffffffff1673ffffffffffffffffffffffffffffffffffffffff168152602001908152602001600020549050919050565b6060600180546109f4906136d5565b80601f0160208091040260200160405190810160405280929190818152602001828054610a20906136d5565b8015610a6d5780601f10610a4257610100808354040283529160200191610a6d565b820191906000526020600020905b815481529060010190602001808311610a5057829003601f168201915b5050505050905090565b610a7f611415565b73ffffffffffffffffffffffffffffffffffffffff168273ffffffffffffffffffffffffffffffffffffffff161415610aed576040517f08c379a0000000000000000000000000000000000000000000000000000000008152600401610ae490613276565b60405180910390fd5b8060056000610afa611415565b73ffffffffffffffffffffffffffffffffffffffff1673ffffffffffffffffffffffffffffffffffffffff16815260200190815260200160002060008473ffffffffffffffffffffffffffffffffffffffff1673ffffffffffffffffffffffffffffffffffffffff16815260200190815260200160002060006101000a81548160ff0219169083151502179055508173ffffffffffffffffffffffffffffffffffffffff16610ba7611415565b73ffffffffffffffffffffffffffffffffffffffff167f17307eab39ab6107e8899845ad3d59bd9653f200f220920489ca2b5937696c3183604051610bec919061319b565b60405180910390a35050565b60606000610c2c610c088461181e565b604051602001610c189190613060565b6040516020818303038152906040526119cb565b9050600a8054905081610c3f9190613750565b9050600a8181548110610c7b577f4e487b7100000000000000000000000000000000000000000000000000000000600052603260045260246000fd5b906000526020600020018054610c90906136d5565b80601f0160208091040260200160405190810160405280929190818152602001828054610cbc906136d5565b8015610d095780601f10610cde57610100808354040283529160200191610d09565b820191906000526020600020905b815481529060010190602001808311610cec57829003601f168201915b5050505050915050919050565b610d27610d21611415565b836114e4565b610d66576040517f08c379a0000000000000000000000000000000000000000000000000000000008152600401610d5d90613416565b60405180910390fd5b610d72848484846119fe565b50505050565b60606000610dac610d888461181e565b604051602001610d98919061303e565b6040516020818303038152906040526119cb565b9050600b8054905081610dbf9190613750565b9050600b8181548110610dfb577f4e487b7100000000000000000000000000000000000000000000000000000000600052603260045260246000fd5b906000526020600020018054610e10906136d5565b80601f0160208091040260200160405190810160405280929190818152602001828054610e3c906136d5565b8015610e895780601f10610e5e57610100808354040283529160200191610e89565b820191906000526020600020905b815481529060010190602001808311610e6c57829003601f168201915b5050505050915050919050565b6060610ea1826113a9565b610ee0576040517f08c379a0000000000000000000000000000000000000000000000000000000008152600401610ed790613376565b60405180910390fd5b6000600660008481526020019081526020016000208054610f00906136d5565b80601f0160208091040260200160405190810160405280929190818152602001828054610f2c906136d5565b8015610f795780601f10610f4e57610100808354040283529160200191610f79565b820191906000526020600020905b815481529060010190602001808311610f5c57829003601f168201915b505050505090506000610f8a611a5a565b9050600081511415610fa0578192505050610fe3565b600082511115610fd5578082604051602001610fbd929190612fba565b60405160208183030381529060405292505050610fe3565b610fde84611a71565b925050505b919050565b6000610ff460076114d6565b905060648110611039576040517f08c379a000000000000000000000000000000000000000000000000000000000815260040161103090613336565b60405180910390fd5b60006110448261073d565b9050600061105183610bf8565b9050600061105e84610d78565b9050600083838360405160200161107793929190612fde565b6040516020818303038152906040529050600060088260405160200161109e92919061300f565b604051602081830303815290604052905060006110e3836110be84611b18565b6040516020016110cf929190613082565b604051602081830303815290604052611b18565b90506000816040516020016110f891906130e9565b60405160208183030381529060405290506111476040518060400160405280601581526020017f0a2d2d2d2d2d2d2d2d2d2d2d2d2d2d2d2d2d2d2d2d00000000000000000000008152506112a6565b611150816112a6565b61118e6040518060400160405280601581526020017f2d2d2d2d2d2d2d2d2d2d2d2d2d2d2d2d2d2d2d2d0a00000000000000000000008152506112a6565b6111983389611cd6565b6111a28882611cf4565b7febb98688741ffa4c7589bf325de30cf7becb63de567842e1ccdb6cb949fdc82c33896040516111d3929190613172565b60405180910390a16111e56007611d68565b6112086040518060600160405280602581526020016138ab602591398933611d7e565b5050505050505050565b6000600560008473ffffffffffffffffffffffffffffffffffffffff1673ffffffffffffffffffffffffffffffffffffffff16815260200190815260200160002060008373ffffffffffffffffffffffffffffffffffffffff1673ffffffffffffffffffffffffffffffffffffffff16815260200190815260200160002060009054906101000a900460ff16905092915050565b61133c816040516024016112ba91906131b6565b6040516020818303038152906040527f41304fac000000000000000000000000000000000000000000000000000000007bffffffffffffffffffffffffffffffffffffffffffffffffffffffff19166020820180517bffffffffffffffffffffffffffffffffffffffffffffffffffffffff8381831617835250505050611e1d565b50565b60007f01ffc9a7000000000000000000000000000000000000000000000000000000007bffffffffffffffffffffffffffffffffffffffffffffffffffffffff1916827bffffffffffffffffffffffffffffffffffffffffffffffffffffffff1916149050919050565b60008073ffffffffffffffffffffffffffffffffffffffff166002600084815260200190815260200160002060009054906101000a900473ffffffffffffffffffffffffffffffffffffffff1673ffffffffffffffffffffffffffffffffffffffff1614159050919050565b600033905090565b816004600083815260200190815260200160002060006101000a81548173ffffffffffffffffffffffffffffffffffffffff021916908373ffffffffffffffffffffffffffffffffffffffff160217905550808273ffffffffffffffffffffffffffffffffffffffff166114908361087b565b73ffffffffffffffffffffffffffffffffffffffff167f8c5be1e5ebec7d5bd14f71427d1e84f3dd0314c0f7b2291e5b200ac8c7c3b92560405160405180910390a45050565b600081600001549050919050565b60006114ef826113a9565b61152e576040517f08c379a000000000000000000000000000000000000000000000000000000000815260040161152590613296565b60405180910390fd5b60006115398361087b565b90508073ffffffffffffffffffffffffffffffffffffffff168473ffffffffffffffffffffffffffffffffffffffff1614806115a857508373ffffffffffffffffffffffffffffffffffffffff166115908461052f565b73ffffffffffffffffffffffffffffffffffffffff16145b806115b957506115b88185611212565b5b91505092915050565b8273ffffffffffffffffffffffffffffffffffffffff166115e28261087b565b73ffffffffffffffffffffffffffffffffffffffff1614611638576040517f08c379a000000000000000000000000000000000000000000000000000000000815260040161162f906133b6565b60405180910390fd5b600073ffffffffffffffffffffffffffffffffffffffff168273ffffffffffffffffffffffffffffffffffffffff1614156116a8576040517f08c379a000000000000000000000000000000000000000000000000000000000815260040161169f90613256565b60405180910390fd5b6116b3838383611e46565b6116be60008261141d565b6001600360008573ffffffffffffffffffffffffffffffffffffffff1673ffffffffffffffffffffffffffffffffffffffff168152602001908152602001600020600082825461170e91906135eb565b925050819055506001600360008473ffffffffffffffffffffffffffffffffffffffff1673ffffffffffffffffffffffffffffffffffffffff1681526020019081526020016000206000828254611765919061350a565b92505081905550816002600083815260200190815260200160002060006101000a81548173ffffffffffffffffffffffffffffffffffffffff021916908373ffffffffffffffffffffffffffffffffffffffff160217905550808273ffffffffffffffffffffffffffffffffffffffff168473ffffffffffffffffffffffffffffffffffffffff167fddf252ad1be2c89b69c2b068fc378daa952ba7f163c4a11628f55a4df523b3ef60405160405180910390a4505050565b60606000821415611866576040518060400160405280600181526020017f300000000000000000000000000000000000000000000000000000000000000081525090506119c6565b600082905060005b6000821461189857808061188190613707565b915050600a826118919190613560565b915061186e565b60008167ffffffffffffffff8111156118da577f4e487b7100000000000000000000000000000000000000000000000000000000600052604160045260246000fd5b6040519080825280601f01601f19166020018201604052801561190c5781602001600182028036833780820191505090505b5090505b600085146119bf5760018261192591906135eb565b9150600a856119349190613750565b6030611940919061350a565b60f81b81838151811061197c577f4e487b7100000000000000000000000000000000000000000000000000000000600052603260045260246000fd5b60200101907effffffffffffffffffffffffffffffffffffffffffffffffffffffffffffff1916908160001a905350600a856119b89190613560565b9450611910565b8093505050505b919050565b6000816040516020016119de9190612fa3565b6040516020818303038152906040528051906020012060001c9050919050565b611a098484846115c2565b611a1584848484611e4b565b611a54576040517f08c379a0000000000000000000000000000000000000000000000000000000008152600401611a4b90613216565b60405180910390fd5b50505050565b606060405180602001604052806000815250905090565b6060611a7c826113a9565b611abb576040517f08c379a0000000000000000000000000000000000000000000000000000000008152600401611ab2906133d6565b60405180910390fd5b6000611ac5611a5a565b90506000815111611ae55760405180602001604052806000815250611b10565b80611aef8461181e565b604051602001611b00929190612fba565b6040516020818303038152906040525b915050919050565b60606000825190506000811415611b415760405180602001604052806000815250915050611cd1565b60006003600283611b52919061350a565b611b5c9190613560565b6004611b689190613591565b90506000602082611b79919061350a565b67ffffffffffffffff811115611bb8577f4e487b7100000000000000000000000000000000000000000000000000000000600052604160045260246000fd5b6040519080825280601f01601f191660200182016040528015611bea5781602001600182028036833780820191505090505b50905060006040518060600160405280604081526020016138d0604091399050600181016020830160005b86811015611c8e5760038101905062ffffff818a015116603f8160121c168401518060081b905060ff603f83600c1c1686015116810190508060081b905060ff603f8360061c1686015116810190508060081b905060ff603f831686015116810190508060e01b90508084526004840193505050611c15565b506003860660018114611ca85760028114611cb857611cc3565b613d3d60f01b6002830352611cc3565b603d60f81b60018303525b508484525050819450505050505b919050565b611cf0828260405180602001604052806000815250611fe2565b5050565b611cfd826113a9565b611d3c576040517f08c379a0000000000000000000000000000000000000000000000000000000008152600401611d3390613316565b60405180910390fd5b80600660008481526020019081526020016000209080519060200190611d6392919061221e565b505050565b6001816000016000828254019250508190555050565b611e18838383604051602401611d96939291906131d8565b6040516020818303038152906040527fe3849f79000000000000000000000000000000000000000000000000000000007bffffffffffffffffffffffffffffffffffffffffffffffffffffffff19166020820180517bffffffffffffffffffffffffffffffffffffffffffffffffffffffff8381831617835250505050611e1d565b505050565b60008151905060006a636f6e736f6c652e6c6f679050602083016000808483855afa5050505050565b505050565b6000611e6c8473ffffffffffffffffffffffffffffffffffffffff1661203d565b15611fd5578373ffffffffffffffffffffffffffffffffffffffff1663150b7a02611e95611415565b8786866040518563ffffffff1660e01b8152600401611eb79493929190613126565b602060405180830381600087803b158015611ed157600080fd5b505af1925050508015611f0257506040513d601f19601f82011682018060405250810190611eff9190612562565b60015b611f85573d8060008114611f32576040519150601f19603f3d011682016040523d82523d6000602084013e611f37565b606091505b50600081511415611f7d576040517f08c379a0000000000000000000000000000000000000000000000000000000008152600401611f7490613216565b60405180910390fd5b805181602001fd5b63150b7a0260e01b7bffffffffffffffffffffffffffffffffffffffffffffffffffffffff1916817bffffffffffffffffffffffffffffffffffffffffffffffffffffffff191614915050611fda565b600190505b949350505050565b611fec8383612050565b611ff96000848484611e4b565b612038576040517f08c379a000000000000000000000000000000000000000000000000000000000815260040161202f90613216565b60405180910390fd5b505050565b600080823b905060008111915050919050565b600073ffffffffffffffffffffffffffffffffffffffff168273ffffffffffffffffffffffffffffffffffffffff1614156120c0576040517f08c379a00000000000000000000000000000000000000000000000000000000081526004016120b790613356565b60405180910390fd5b6120c9816113a9565b15612109576040517f08c379a000000000000000000000000000000000000000000000000000000000815260040161210090613236565b60405180910390fd5b61211560008383611e46565b6001600360008473ffffffffffffffffffffffffffffffffffffffff1673ffffffffffffffffffffffffffffffffffffffff1681526020019081526020016000206000828254612165919061350a565b92505081905550816002600083815260200190815260200160002060006101000a81548173ffffffffffffffffffffffffffffffffffffffff021916908373ffffffffffffffffffffffffffffffffffffffff160217905550808273ffffffffffffffffffffffffffffffffffffffff16600073ffffffffffffffffffffffffffffffffffffffff167fddf252ad1be2c89b69c2b068fc378daa952ba7f163c4a11628f55a4df523b3ef60405160405180910390a45050565b82805461222a906136d5565b90600052602060002090601f01602090048101928261224c5760008555612293565b82601f1061226557805160ff1916838001178555612293565b82800160010185558215612293579182015b82811115612292578251825591602001919060010190612277565b5b5090506122a091906122a4565b5090565b5b808211156122bd5760008160009055506001016122a5565b5090565b60006122d46122cf84613482565b613451565b9050828152602081018484840111156122ec57600080fd5b6122f7848285613693565b509392505050565b60008135905061230e8161384e565b92915050565b60008135905061232381613865565b92915050565b6000813590506123388161387c565b92915050565b60008151905061234d8161387c565b92915050565b600082601f83011261236457600080fd5b81356123748482602086016122c1565b91505092915050565b60008135905061238c81613893565b92915050565b6000602082840312156123a457600080fd5b60006123b2848285016122ff565b91505092915050565b600080604083850312156123ce57600080fd5b60006123dc858286016122ff565b92505060206123ed858286016122ff565b9150509250929050565b60008060006060848603121561240c57600080fd5b600061241a868287016122ff565b935050602061242b868287016122ff565b925050604061243c8682870161237d565b9150509250925092565b6000806000806080858703121561245c57600080fd5b600061246a878288016122ff565b945050602061247b878288016122ff565b935050604061248c8782880161237d565b925050606085013567ffffffffffffffff8111156124a957600080fd5b6124b587828801612353565b91505092959194509250565b600080604083850312156124d457600080fd5b60006124e2858286016122ff565b92505060206124f385828601612314565b9150509250929050565b6000806040838503121561251057600080fd5b600061251e858286016122ff565b925050602061252f8582860161237d565b9150509250929050565b60006020828403121561254b57600080fd5b600061255984828501612329565b91505092915050565b60006020828403121561257457600080fd5b60006125828482850161233e565b91505092915050565b60006020828403121561259d57600080fd5b60006125ab8482850161237d565b91505092915050565b6125bd8161361f565b82525050565b6125cc81613631565b82525050565b60006125dd826134c7565b6125e781856134dd565b93506125f78185602086016136a2565b6126008161383d565b840191505092915050565b6000612616826134d2565b61262081856134ee565b93506126308185602086016136a2565b6126398161383d565b840191505092915050565b600061264f826134d2565b61265981856134ff565b93506126698185602086016136a2565b80840191505092915050565b60008154612682816136d5565b61268c81866134ff565b945060018216600081146126a757600181146126b8576126eb565b60ff198316865281860193506126eb565b6126c1856134b2565b60005b838110156126e3578154818901526001820191506020810190506126c4565b838801955050505b50505092915050565b60006127016032836134ee565b91507f4552433732313a207472616e7366657220746f206e6f6e20455243373231526560008301527f63656976657220696d706c656d656e74657200000000000000000000000000006020830152604082019050919050565b6000612767601c836134ee565b91507f4552433732313a20746f6b656e20616c7265616479206d696e746564000000006000830152602082019050919050565b60006127a7600a836134ff565b91507f54484952445f574f5244000000000000000000000000000000000000000000006000830152600a82019050919050565b60006127e76024836134ee565b91507f4552433732313a207472616e7366657220746f20746865207a65726f2061646460008301527f72657373000000000000000000000000000000000000000000000000000000006020830152604082019050919050565b600061284d6019836134ee565b91507f4552433732313a20617070726f766520746f2063616c6c6572000000000000006000830152602082019050919050565b600061288d6063836134ff565b91507f222c20226465736372697074696f6e223a20224120686967686c79206163636c60008301527f61696d656420636f6c6c656374696f6e206f6620737175617265732e222c202260208301527f696d616765223a2022646174613a696d6167652f7376672b786d6c3b6261736560408301527f36342c00000000000000000000000000000000000000000000000000000000006060830152606382019050919050565b600061293f600b836134ff565b91507f5345434f4e445f574f52440000000000000000000000000000000000000000006000830152600b82019050919050565b600061297f602c836134ee565b91507f4552433732313a206f70657261746f7220717565727920666f72206e6f6e657860008301527f697374656e7420746f6b656e00000000000000000000000000000000000000006020830152604082019050919050565b60006129e5600d836134ff565b91507f3c2f746578743e3c2f7376673e000000000000000000000000000000000000006000830152600d82019050919050565b6000612a256038836134ee565b91507f4552433732313a20617070726f76652063616c6c6572206973206e6f74206f7760008301527f6e6572206e6f7220617070726f76656420666f7220616c6c00000000000000006020830152604082019050919050565b6000612a8b602a836134ee565b91507f4552433732313a2062616c616e636520717565727920666f7220746865207a6560008301527f726f2061646472657373000000000000000000000000000000000000000000006020830152604082019050919050565b6000612af16029836134ee565b91507f4552433732313a206f776e657220717565727920666f72206e6f6e657869737460008301527f656e7420746f6b656e00000000000000000000000000000000000000000000006020830152604082019050919050565b6000612b57602e836134ee565b91507f45524337323155524953746f726167653a2055524920736574206f66206e6f6e60008301527f6578697374656e7420746f6b656e0000000000000000000000000000000000006020830152604082019050919050565b6000612bbd6020836134ee565b91507f4d6178696d75756d206e756d626572206f66204e465473206d696e74656421216000830152602082019050919050565b6000612bfd6002836134ff565b91507f227d0000000000000000000000000000000000000000000000000000000000006000830152600282019050919050565b6000612c3d6020836134ee565b91507f4552433732313a206d696e7420746f20746865207a65726f20616464726573736000830152602082019050919050565b6000612c7d6031836134ee565b91507f45524337323155524953746f726167653a2055524920717565727920666f722060008301527f6e6f6e6578697374656e7420746f6b656e0000000000000000000000000000006020830152604082019050919050565b6000612ce3602c836134ee565b91507f4552433732313a20617070726f76656420717565727920666f72206e6f6e657860008301527f697374656e7420746f6b656e00000000000000000000000000000000000000006020830152604082019050919050565b6000612d496029836134ee565b91507f4552433732313a207472616e73666572206f6620746f6b656e2074686174206960008301527f73206e6f74206f776e00000000000000000000000000000000000000000000006020830152604082019050919050565b6000612daf602f836134ee565b91507f4552433732314d657461646174613a2055524920717565727920666f72206e6f60008301527f6e6578697374656e7420746f6b656e00000000000000000000000000000000006020830152604082019050919050565b6000612e15600a836134ff565b91507f7b226e616d65223a2022000000000000000000000000000000000000000000006000830152600a82019050919050565b6000612e556021836134ee565b91507f4552433732313a20617070726f76616c20746f2063757272656e74206f776e6560008301527f72000000000000000000000000000000000000000000000000000000000000006020830152604082019050919050565b6000612ebb600a836134ff565b91507f46495253545f574f5244000000000000000000000000000000000000000000006000830152600a82019050919050565b6000612efb601d836134ff565b91507f646174613a6170706c69636174696f6e2f6a736f6e3b6261736536342c0000006000830152601d82019050919050565b6000612f3b6031836134ee565b91507f4552433732313a207472616e736665722063616c6c6572206973206e6f74206f60008301527f776e6572206e6f7220617070726f7665640000000000000000000000000000006020830152604082019050919050565b612f9d81613689565b82525050565b6000612faf8284612644565b915081905092915050565b6000612fc68285612644565b9150612fd28284612644565b91508190509392505050565b6000612fea8286612644565b9150612ff68285612644565b91506130028284612644565b9150819050949350505050565b600061301b8285612675565b91506130278284612644565b9150613032826129d8565b91508190509392505050565b60006130498261279a565b91506130558284612644565b915081905092915050565b600061306b82612932565b91506130778284612644565b915081905092915050565b600061308d82612e08565b91506130998285612644565b91506130a482612880565b91506130b08284612644565b91506130bb82612bf0565b91508190509392505050565b60006130d282612eae565b91506130de8284612644565b915081905092915050565b60006130f482612eee565b91506131008284612644565b915081905092915050565b600060208201905061312060008301846125b4565b92915050565b600060808201905061313b60008301876125b4565b61314860208301866125b4565b6131556040830185612f94565b818103606083015261316781846125d2565b905095945050505050565b600060408201905061318760008301856125b4565b6131946020830184612f94565b9392505050565b60006020820190506131b060008301846125c3565b92915050565b600060208201905081810360008301526131d0818461260b565b905092915050565b600060608201905081810360008301526131f2818661260b565b90506132016020830185612f94565b61320e60408301846125b4565b949350505050565b6000602082019050818103600083015261322f816126f4565b9050919050565b6000602082019050818103600083015261324f8161275a565b9050919050565b6000602082019050818103600083015261326f816127da565b9050919050565b6000602082019050818103600083015261328f81612840565b9050919050565b600060208201905081810360008301526132af81612972565b9050919050565b600060208201905081810360008301526132cf81612a18565b9050919050565b600060208201905081810360008301526132ef81612a7e565b9050919050565b6000602082019050818103600083015261330f81612ae4565b9050919050565b6000602082019050818103600083015261332f81612b4a565b9050919050565b6000602082019050818103600083015261334f81612bb0565b9050919050565b6000602082019050818103600083015261336f81612c30565b9050919050565b6000602082019050818103600083015261338f81612c70565b9050919050565b600060208201905081810360008301526133af81612cd6565b9050919050565b600060208201905081810360008301526133cf81612d3c565b9050919050565b600060208201905081810360008301526133ef81612da2565b9050919050565b6000602082019050818103600083015261340f81612e48565b9050919050565b6000602082019050818103600083015261342f81612f2e565b9050919050565b600060208201905061344b6000830184612f94565b92915050565b6000604051905081810181811067ffffffffffffffff821117156134785761347761380e565b5b8060405250919050565b600067ffffffffffffffff82111561349d5761349c61380e565b5b601f19601f8301169050602081019050919050565b60008190508160005260206000209050919050565b600081519050919050565b600081519050919050565b600082825260208201905092915050565b600082825260208201905092915050565b600081905092915050565b600061351582613689565b915061352083613689565b9250827fffffffffffffffffffffffffffffffffffffffffffffffffffffffffffffffff0382111561355557613554613781565b5b828201905092915050565b600061356b82613689565b915061357683613689565b925082613586576135856137b0565b5b828204905092915050565b600061359c82613689565b91506135a783613689565b9250817fffffffffffffffffffffffffffffffffffffffffffffffffffffffffffffffff04831182151516156135e0576135df613781565b5b828202905092915050565b60006135f682613689565b915061360183613689565b92508282101561361457613613613781565b5b828203905092915050565b600061362a82613669565b9050919050565b60008115159050919050565b60007fffffffff0000000000000000000000000000000000000000000000000000000082169050919050565b600073ffffffffffffffffffffffffffffffffffffffff82169050919050565b6000819050919050565b82818337600083830152505050565b60005b838110156136c05780820151818401526020810190506136a5565b838111156136cf576000848401525b50505050565b600060028204905060018216806136ed57607f821691505b60208210811415613701576137006137df565b5b50919050565b600061371282613689565b91507fffffffffffffffffffffffffffffffffffffffffffffffffffffffffffffffff82141561374557613744613781565b5b600182019050919050565b600061375b82613689565b915061376683613689565b925082613776576137756137b0565b5b828206905092915050565b7f4e487b7100000000000000000000000000000000000000000000000000000000600052601160045260246000fd5b7f4e487b7100000000000000000000000000000000000000000000000000000000600052601260045260246000fd5b7f4e487b7100000000000000000000000000000000000000000000000000000000600052602260045260246000fd5b7f4e487b7100000000000000000000000000000000000000000000000000000000600052604160045260246000fd5b6000601f19601f8301169050919050565b6138578161361f565b811461386257600080fd5b50565b61386e81613631565b811461387957600080fd5b50565b6138858161363d565b811461389057600080fd5b50565b61389c81613689565b81146138a757600080fd5b5056fe416e204e465420772f20494420257320686173206265656e206d696e74656420746f2025734142434445464748494a4b4c4d4e4f505152535455565758595a6162636465666768696a6b6c6d6e6f707172737475767778797a303132333435363738392b2fa264697066735822122082fed1d1773ff158a04f686ee026a16e6601edc096254729569192601758a96264736f6c634300080000333c73766720786d6c6e733d27687474703a2f2f7777772e77332e6f72672f323030302f73766727207072657365727665417370656374526174696f3d27784d696e594d696e206d656574272076696577426f783d273020302033353020333530273e3c7374796c653e2e62617365207b2066696c6c3a2077686974653b20666f6e742d66616d696c793a2073657269663b20666f6e742d73697a653a20323470783b207d3c2f7374796c653e3c726563742077696474683d273130302527206865696768743d2731303025272066696c6c3d27626c61636b27202f3e3c7465787420783d273530252720793d273530252720636c6173733d27626173652720646f6d696e616e742d626173656c696e653d276d6964646c652720746578742d616e63686f723d276d6964646c65273e",
  "linkReferences": {},
  "deployedLinkReferences": {}
}